{
  "_format": "hh-sol-artifact-1",
  "contractName": "Tracking",
  "sourceName": "contracts/Tracking.sol",
  "abi": [
    {
      "inputs": [],
      "stateMutability": "nonpayable",
      "type": "constructor"
    },
    {
      "anonymous": false,
      "inputs": [
        {
          "indexed": true,
          "internalType": "address",
          "name": "sender",
          "type": "address"
        },
        {
          "indexed": true,
          "internalType": "address",
          "name": "receiver",
          "type": "address"
        },
        {
          "indexed": false,
          "internalType": "uint256",
          "name": "pickupTime",
          "type": "uint256"
        },
        {
          "indexed": false,
          "internalType": "uint256",
          "name": "distance",
          "type": "uint256"
        },
        {
          "indexed": false,
          "internalType": "uint256",
          "name": "price",
          "type": "uint256"
        }
      ],
      "name": "ShipmentCreated",
      "type": "event"
    },
    {
      "anonymous": false,
      "inputs": [
        {
          "indexed": true,
          "internalType": "address",
          "name": "sender",
          "type": "address"
        },
        {
          "indexed": true,
          "internalType": "address",
          "name": "receiver",
          "type": "address"
        },
        {
          "indexed": false,
          "internalType": "uint256",
          "name": "deliveryTime",
          "type": "uint256"
        }
      ],
      "name": "ShipmentDelivered",
      "type": "event"
    },
    {
      "anonymous": false,
      "inputs": [
        {
          "indexed": true,
          "internalType": "address",
          "name": "sender",
          "type": "address"
        },
        {
          "indexed": true,
          "internalType": "address",
          "name": "receiver",
          "type": "address"
        },
        {
          "indexed": false,
          "internalType": "uint256",
          "name": "pickupTime",
          "type": "uint256"
        }
      ],
      "name": "ShipmentInTransit",
      "type": "event"
    },
    {
      "anonymous": false,
      "inputs": [
        {
          "indexed": true,
          "internalType": "address",
          "name": "sender",
          "type": "address"
        },
        {
          "indexed": true,
          "internalType": "address",
          "name": "receiver",
          "type": "address"
        },
        {
          "indexed": false,
          "internalType": "uint256",
          "name": "amount",
          "type": "uint256"
        }
      ],
      "name": "ShipmentPaid",
      "type": "event"
    },
    {
      "inputs": [
        {
          "internalType": "address",
          "name": "_sender",
          "type": "address"
        },
        {
          "internalType": "address",
          "name": "_receiver",
          "type": "address"
        },
        {
          "internalType": "uint256",
          "name": "_index",
          "type": "uint256"
        }
      ],
      "name": "completeShipment",
      "outputs": [],
      "stateMutability": "nonpayable",
      "type": "function"
    },
    {
      "inputs": [
        {
          "internalType": "address",
          "name": "_receiver",
          "type": "address"
        },
        {
          "internalType": "uint256",
          "name": "_pickupTime",
          "type": "uint256"
        },
        {
          "internalType": "uint256",
          "name": "_distance",
          "type": "uint256"
        },
        {
          "internalType": "uint256",
          "name": "_price",
          "type": "uint256"
        }
      ],
      "name": "createShipment",
      "outputs": [],
      "stateMutability": "payable",
      "type": "function"
    },
    {
      "inputs": [],
      "name": "getAllTransactions",
      "outputs": [
        {
          "components": [
            {
              "internalType": "address",
              "name": "sender",
              "type": "address"
            },
            {
              "internalType": "address",
              "name": "receiver",
              "type": "address"
            },
            {
              "internalType": "uint256",
              "name": "pickupTime",
              "type": "uint256"
            },
            {
              "internalType": "uint256",
              "name": "deliveryTime",
              "type": "uint256"
            },
            {
              "internalType": "uint256",
              "name": "distance",
              "type": "uint256"
            },
            {
              "internalType": "uint256",
              "name": "price",
              "type": "uint256"
            },
            {
              "internalType": "enum Tracking.ShipmentStatus",
              "name": "status",
              "type": "uint8"
            },
            {
              "internalType": "bool",
              "name": "isPaid",
              "type": "bool"
            }
          ],
          "internalType": "struct Tracking.TypeShipment[]",
          "name": "",
          "type": "tuple[]"
        }
      ],
      "stateMutability": "view",
      "type": "function"
    },
    {
      "inputs": [
        {
          "internalType": "address",
          "name": "_sender",
          "type": "address"
        },
        {
          "internalType": "uint256",
          "name": "_index",
          "type": "uint256"
        }
      ],
      "name": "getShipment",
      "outputs": [
        {
          "internalType": "address",
          "name": "",
          "type": "address"
        },
        {
          "internalType": "address",
          "name": "",
          "type": "address"
        },
        {
          "internalType": "uint256",
          "name": "",
          "type": "uint256"
        },
        {
          "internalType": "uint256",
          "name": "",
          "type": "uint256"
        },
        {
          "internalType": "uint256",
          "name": "",
          "type": "uint256"
        },
        {
          "internalType": "uint256",
          "name": "",
          "type": "uint256"
        },
        {
          "internalType": "enum Tracking.ShipmentStatus",
          "name": "",
          "type": "uint8"
        },
        {
          "internalType": "bool",
          "name": "",
          "type": "bool"
        }
      ],
      "stateMutability": "view",
      "type": "function"
    },
    {
      "inputs": [
        {
          "internalType": "address",
          "name": "_sender",
          "type": "address"
        }
      ],
      "name": "getShipmentCount",
      "outputs": [
        {
          "internalType": "uint256",
          "name": "",
          "type": "uint256"
        }
      ],
      "stateMutability": "view",
      "type": "function"
    },
    {
      "inputs": [],
      "name": "shipmentCount",
      "outputs": [
        {
          "internalType": "uint256",
          "name": "",
          "type": "uint256"
        }
      ],
      "stateMutability": "view",
      "type": "function"
    },
    {
      "inputs": [
        {
          "internalType": "address",
          "name": "",
          "type": "address"
        },
        {
          "internalType": "uint256",
          "name": "",
          "type": "uint256"
        }
      ],
      "name": "shipments",
      "outputs": [
        {
          "internalType": "address",
          "name": "sender",
          "type": "address"
        },
        {
          "internalType": "address",
          "name": "receiver",
          "type": "address"
        },
        {
          "internalType": "uint256",
          "name": "pickupTime",
          "type": "uint256"
        },
        {
          "internalType": "uint256",
          "name": "deliveryTime",
          "type": "uint256"
        },
        {
          "internalType": "uint256",
          "name": "distance",
          "type": "uint256"
        },
        {
          "internalType": "uint256",
          "name": "price",
          "type": "uint256"
        },
        {
          "internalType": "enum Tracking.ShipmentStatus",
          "name": "status",
          "type": "uint8"
        },
        {
          "internalType": "bool",
          "name": "isPaid",
          "type": "bool"
        }
      ],
      "stateMutability": "view",
      "type": "function"
    },
    {
      "inputs": [
        {
          "internalType": "address",
          "name": "_sender",
          "type": "address"
        },
        {
          "internalType": "address",
          "name": "_receiver",
          "type": "address"
        },
        {
          "internalType": "uint256",
          "name": "_index",
          "type": "uint256"
        }
      ],
      "name": "startShipment",
      "outputs": [],
      "stateMutability": "nonpayable",
      "type": "function"
    }
  ],
  "bytecode": "0x608060405234801561001057600080fd5b506000600155610ee7806100256000396000f3fe60806040526004361061007b5760003560e01c80638365da541161004e5780638365da5414610121578063aace20b714610141578063b7dfd93d14610163578063cbc4b181146101835761007b565b8063179a878c1461008057806327506f53146100a25780635667e02f146100cd5780637ff5265d14610101575b600080fd5b34801561008c57600080fd5b506100a061009b366004610ba6565b610196565b005b3480156100ae57600080fd5b506100b76103e3565b6040516100c49190610cbb565b60405180910390f35b3480156100d957600080fd5b506100ed6100e8366004610be1565b6104f4565b6040516100c4989796959493929190610c64565b34801561010d57600080fd5b506100a061011c366004610ba6565b610567565b34801561012d57600080fd5b506100ed61013c366004610be1565b6106cf565b34801561014d57600080fd5b50610156610835565b6040516100c49190610e6b565b34801561016f57600080fd5b5061015661017e366004610b85565b61083b565b6100a0610191366004610c0a565b61085a565b6001600160a01b03831660009081526020819052604081208054839081106101ce57634e487b7160e01b600052603260045260246000fd5b9060005260206000209060070201905060006002838154811061020157634e487b7160e01b600052603260045260246000fd5b60009182526020909120600184015460079092020191506001600160a01b0385811691161461024b5760405162461bcd60e51b815260040161024290610dda565b60405180910390fd5b6001600683015460ff16600281111561027457634e487b7160e01b600052602160045260246000fd5b146102915760405162461bcd60e51b815260040161024290610d60565b6006820154610100900460ff166102ba5760405162461bcd60e51b815260040161024290610e05565b60068281018054600260ff1991821681179092559183018054909216179055426003808301829055830155600582015482546040516001600160a01b039091169082156108fc029083906000818181858888f19350505050158015610323573d6000803e3d6000fd5b506006838101805461010061ff00199182168117909255918401805490921617905560038301546040516001600160a01b0387811692908916917f3746ccceb54f44c9b0ee0120e596168d07ec9f6ca303cfdd9810d3b2e2686a2e9161038891610e6b565b60405180910390a3846001600160a01b0316866001600160a01b03167f2b6f2473aebafaf8d0889669490135928ec4454d2e29a103fd39693bbca6aef1836040516103d39190610e6b565b60405180910390a3505050505050565b60606002805480602002602001604051908101604052809291908181526020016000905b828210156104eb57600084815260209081902060408051610100810182526007860290920180546001600160a01b03908116845260018201541693830193909352600280840154918301919091526003830154606083015260048301546080830152600583015460a0830152600683015491929160c084019160ff909116908111156104a357634e487b7160e01b600052602160045260246000fd5b60028111156104c257634e487b7160e01b600052602160045260246000fd5b815260069190910154610100900460ff1615156020918201529082526001929092019101610407565b50505050905090565b6000602052816000526040600020818154811061051057600080fd5b600091825260209091206007909102018054600182015460028301546003840154600485015460058601546006909601546001600160a01b0395861698509490931695509093909260ff8082169161010090041688565b6001600160a01b038316600090815260208190526040812080548390811061059f57634e487b7160e01b600052603260045260246000fd5b906000526020600020906007020190506000600283815481106105d257634e487b7160e01b600052603260045260246000fd5b60009182526020909120600184015460079092020191506001600160a01b038581169116146106135760405162461bcd60e51b815260040161024290610dda565b6000600683015460ff16600281111561063c57634e487b7160e01b600052602160045260246000fd5b146106595760405162461bcd60e51b815260040161024290610e34565b60068281018054600160ff1991821681179092559183018054909216811790915582015460028301546040516001600160a01b03928316928816917faafab9f94340179ff9cefd29621e1772a4b8efab8023163838f1b0a8f6ce5df5916106c09190610e6b565b60405180910390a35050505050565b60008060008060008060008060008060008c6001600160a01b03166001600160a01b031681526020019081526020016000208a8154811061072057634e487b7160e01b600052603260045260246000fd5b60009182526020918290206040805161010081018252600790930290910180546001600160a01b03908116845260018201541693830193909352600280840154918301919091526003830154606083015260048301546080830152600583015460a0830152600683015491929160c084019160ff909116908111156107b557634e487b7160e01b600052602160045260246000fd5b60028111156107d457634e487b7160e01b600052602160045260246000fd5b81526006919091015460ff61010090910416151560209182015281519082015160408301516060840151608085015160a086015160c087015160e090970151959f50939d50919b509950975095509093509150509295985092959890939650565b60015481565b6001600160a01b0381166000908152602081905260409020545b919050565b8034146108795760405162461bcd60e51b815260040161024290610d97565b6000604051806101000160405280336001600160a01b03168152602001866001600160a01b0316815260200185815260200160008152602001848152602001838152602001600060028111156108df57634e487b7160e01b600052602160045260246000fd5b815260006020918201819052338152808252604080822080546001818101835591845292849020855160079094020180546001600160a01b039485166001600160a01b031991821617825594860151818301805491909516951694909417909255830151600280840191909155606084015160038401556080840151600484015560a0840151600584015560c084015160068401805495965086959193909260ff199092169184908111156109a457634e487b7160e01b600052602160045260246000fd5b021790555060e09190910151600690910180549115156101000261ff0019909216919091179055600180549060006109db83610e8a565b91905055506002604051806101000160405280336001600160a01b03168152602001876001600160a01b031681526020018681526020016000815260200185815260200184815260200160006002811115610a4657634e487b7160e01b600052602160045260246000fd5b81526000602091820181905283546001818101865594825290829020835160079092020180546001600160a01b039283166001600160a01b03199182161782559284015181860180549190931693169290921790556040820151600280830191909155606083015160038301556080830151600483015560a0830151600583015560c0830151600683018054949593949193909260ff19909216918490811115610b0057634e487b7160e01b600052602160045260246000fd5b021790555060e08201518160060160016101000a81548160ff0219169083151502179055505050846001600160a01b0316336001600160a01b03167f5001b34ecf2db5b7bbeddcbbe761ec9ecadcc7638018b98ce3e24995b0e946b68686866040516106c093929190610e74565b80356001600160a01b038116811461085557600080fd5b600060208284031215610b96578081fd5b610b9f82610b6e565b9392505050565b600080600060608486031215610bba578182fd5b610bc384610b6e565b9250610bd160208501610b6e565b9150604084013590509250925092565b60008060408385031215610bf3578182fd5b610bfc83610b6e565b946020939093013593505050565b60008060008060808587031215610c1f578081fd5b610c2885610b6e565b966020860135965060408601359560600135945092505050565b60038110610c6057634e487b7160e01b600052602160045260246000fd5b9052565b6001600160a01b0389811682528816602082015260408101879052606081018690526080810185905260a081018490526101008101610ca660c0830185610c42565b82151560e08301529998505050505050505050565b602080825282518282018190526000919060409081850190868401855b82811015610d5357815180516001600160a01b0390811686528782015116878601528581015186860152606080820151908601526080808201519086015260a0808201519086015260c080820151610d3282880182610c42565b505060e0908101511515908501526101009093019290850190600101610cd8565b5091979650505050505050565b60208082526017908201527f536869706d656e74206e6f7420696e207472616e736974000000000000000000604082015260600190565b60208082526023908201527f5061796d656e7420616d6f756e74206d757374206d617463682074686520707260408201526269636560e81b606082015260800190565b60208082526011908201527024b73b30b634b2103932b1b2b4bb32b91760791b604082015260600190565b60208082526015908201527414da1a5c1b595b9d08185b1c9958591e481c185a59605a1b604082015260600190565b6020808252601c908201527f536869706d656e7420616c726561647920696e207472616e7369742e00000000604082015260600190565b90815260200190565b9283526020830191909152604082015260600190565b6000600019821415610eaa57634e487b7160e01b81526011600452602481fd5b506001019056fea2646970667358221220cf47117f9ca0454669786c6b3e7f41e63b23b32ee79e564d90f1d63cbd0f762064736f6c63430008000033",
  "linkReferences": {},
  "deployedLinkReferences": {}
}